:020000040800F2
:1000000000800120DD0200082D0300082D030008F8
:100010002D0300082D0300082D0300080000000038
:100020000000000000000000000000002D03000898
:100030002D030008000000002D0300082D03000818
:10004000000000002D0300082D0300082D03000808
:100050002D0300082D0300082D0300082D030008C0
:100060002D0300082D0300082D0300082D030008B0
:100070002D0300082D0300082D0300082D030008A0
:100080002D0300082D0300082D03000800000000C8
:100090000000000000000000000000002D03000828
:1000A0002D0300082D0300082D0300082D03000870
:1000B0002D0300082D0300082D0300082D03000860
:1000C0002D0300082D0300082D0300082D03000850
:1000D0002D0300082D0300082D0300080000000078
:1000E0002D0300082D0300082D0300080000000068
:1000F0000000000000000000000000002D030008C8
:10010000000000002D0300082D0300082D03000847
:1001100000000000000000000000000000000000DF
:100120002D0300082D0300082D0300082D030008EF
:100130002D03000800000000000000000000000087
:100140000000000000000000000000002D03000877
:100150002D0300082D0300082D0300082D030008BF
:100160002D0300082D03000800000000000000001F
:10017000000000000000000000000000000000007F
:10018000000000000000000000000000000000006F
:040190002D03000833
:1001940010B5054C237833B9044B13B10448AFF3BD
:1001A40000800123237010BD000000200000000027
:1001B4007803000808B5034B1BB103490348AFF3A8
:1001C400008008BD0000000004000020780300083F
:1001D40080B500AF314B1B6B304A43F0010313630E
:1001E4002E4B1B6B2D4A43F0020313632B4B1B6BEB
:1001F4002A4A43F004031363294B1B68284A43F437
:1002040080631360264B1B68254A23F40063136044
:10021400244B1B68234A43F004031360214B1B68DF
:10022400204A23F0080313601F4B1B681E4A43F443
:10023400804313601C4B1B681B4A23F40043136068
:10024400174B5B69164A43F020035361154B5B69F6
:10025400144A43F002035361134B5B69124A43F09F
:10026400800353614CF2503000F020F80C4B5B6972
:100274000B4A23F0200353610A4B5B69094A23F0BC
:1002840002035361084B5B69074A23F080035361FF
:100294004CF2503000F00AF800BFD1E700380240B9
:1002A40000000240000402400008024080B485B00F
:1002B40000AF78600023FB6002E0FB680133FB6061
:1002C400FA687B689A42F8DD00BF00BF1437BD4668
:1002D4005DF8047B704700000D488546AFF300804D
:1002E4000C480D490D4A002302E0D458C45004338D
:1002F400C4188C42F9D30A4A0A4C002301E0136063
:100304000432A242FBD300F011F8FFF761FFFEE7CD
:100314000080012000000020000000209803000855
:10032400000000201C000020FEE7000070B50D4D09
:100334000D4C641BA4100026A64209D10B4D0C4C95
:1003440000F018F8641BA4100026A64205D170BD65
:1003540055F8043B98470136EEE755F8043B9847B7
:100364000136F2E7900300089003000890030008A8
:1003740094030008F8B500BFF8BC08BC9E4670475B
:0C038400F8B500BFF8BC08BC9E467047EE
:04039000B9010008A7
:0403940095010008C7
:04000005080002DD10
:00000001FF
