:020000040800F2
:1000000000800120C5020008150300081503000840
:100010001503000815030008150300080000000080
:1000200000000000000000000000000015030008B0
:100030001503000800000000150300081503000860
:100040000000000015030008150300081503000850
:100050001503000815030008150300081503000820
:100060001503000815030008150300081503000810
:100070001503000815030008150300081503000800
:100080001503000815030008150300080000000010
:100090000000000000000000000000001503000840
:1000A00015030008150300081503000815030008D0
:1000B00015030008150300081503000815030008C0
:1000C00015030008150300081503000815030008B0
:1000D00015030008150300081503000800000000C0
:1000E00015030008150300081503000800000000B0
:1000F00000000000000000000000000015030008E0
:10010000000000001503000815030008150300088F
:1001100000000000000000000000000000000000DF
:10012000150300081503000815030008150300084F
:10013000150300080000000000000000000000009F
:10014000000000000000000000000000150300088F
:10015000150300081503000815030008150300081F
:10016000150300081503000800000000000000004F
:10017000000000000000000000000000000000007F
:10018000000000000000000000000000000000006F
:04019000150300084B
:1001940010B5054C237833B9044B13B10448AFF3BD
:1001A40000800123237010BD000000200000000027
:1001B4006003000808B5034B1BB103490348AFF3C0
:1001C400008008BD00000000040000206003000857
:1001D40080B400AF364B1B6B354A43F00103136305
:1001E400334B1B6B324A43F002031363304B1B6BDC
:1001F4002F4A43F0040313632E4B1B682D4A43F428
:10020400806313602B4B1B682A4A23F4006313603A
:10021400294B1B68284A43F004031360264B1B68D0
:10022400254A23F008031360244B1B68234A43F434
:1002340080431360214B1B68204A23F4004313605E
:100244001E4B1B681D4A23F0807313601B4B1B68F5
:100254001A4A23F000631360184B1B6903F400531C
:10026400002B12D1134B5B69124A43F020035361F4
:10027400114B5B69104A43F0020353610F4B5B69F6
:100284000E4A43F080035361E6E70A4B5B69094A6F
:1002940023F020035361084B5B69074A23F00203F0
:1002A4005361064B5B69054A23F080035361D3E72E
:1002B40000380240000002400004024000080240EE
:1002C4000D488546AFF300800C480D490D4A0023C4
:1002D40002E0D458C4500433C4188C42F9D30A4AF7
:1002E4000A4C002301E013600432A242FBD300F065
:1002F40011F8FFF76DFFFEE70080012000000020E9
:100304000000002080030008000000201C000020E2
:10031400FEE7000070B50D4D0D4C641BA4100026C3
:10032400A64209D10B4D0C4C00F018F8641BA41024
:100334000026A64205D170BD55F8043B9847013606
:10034400EEE755F8043B98470136F2E778030008D6
:1003540078030008780300087C030008F8B500BFA0
:10036400F8BC08BC9E467047F8B500BFF8BC08BC92
:040374009E467047EA
:04037800B9010008BF
:04037C0095010008DF
:04000005080002C528
:00000001FF
